{
  "contractName": "WNAV",
  "abi": [
    {
      "anonymous": false,
      "inputs": [
        {
          "indexed": true,
          "internalType": "address",
          "name": "owner",
          "type": "address"
        },
        {
          "indexed": true,
          "internalType": "address",
          "name": "spender",
          "type": "address"
        },
        {
          "indexed": false,
          "internalType": "uint256",
          "name": "value",
          "type": "uint256"
        }
      ],
      "name": "Approval",
      "type": "event"
    },
    {
      "anonymous": false,
      "inputs": [
        {
          "indexed": true,
          "internalType": "address",
          "name": "a",
          "type": "address"
        },
        {
          "indexed": false,
          "internalType": "uint256",
          "name": "v",
          "type": "uint256"
        },
        {
          "indexed": false,
          "internalType": "string",
          "name": "n",
          "type": "string"
        }
      ],
      "name": "BurnedWithNote",
      "type": "event"
    },
    {
      "anonymous": false,
      "inputs": [
        {
          "indexed": true,
          "internalType": "address",
          "name": "a",
          "type": "address"
        },
        {
          "indexed": false,
          "internalType": "uint256",
          "name": "v",
          "type": "uint256"
        },
        {
          "indexed": false,
          "internalType": "string",
          "name": "n",
          "type": "string"
        },
        {
          "indexed": false,
          "internalType": "uint256",
          "name": "f",
          "type": "uint256"
        }
      ],
      "name": "MintedWithNote",
      "type": "event"
    },
    {
      "anonymous": false,
      "inputs": [
        {
          "indexed": false,
          "internalType": "address",
          "name": "account",
          "type": "address"
        }
      ],
      "name": "Paused",
      "type": "event"
    },
    {
      "anonymous": false,
      "inputs": [
        {
          "indexed": true,
          "internalType": "address",
          "name": "a",
          "type": "address"
        }
      ],
      "name": "Registered",
      "type": "event"
    },
    {
      "anonymous": false,
      "inputs": [
        {
          "indexed": true,
          "internalType": "bytes32",
          "name": "role",
          "type": "bytes32"
        },
        {
          "indexed": true,
          "internalType": "bytes32",
          "name": "previousAdminRole",
          "type": "bytes32"
        },
        {
          "indexed": true,
          "internalType": "bytes32",
          "name": "newAdminRole",
          "type": "bytes32"
        }
      ],
      "name": "RoleAdminChanged",
      "type": "event"
    },
    {
      "anonymous": false,
      "inputs": [
        {
          "indexed": true,
          "internalType": "bytes32",
          "name": "role",
          "type": "bytes32"
        },
        {
          "indexed": true,
          "internalType": "address",
          "name": "account",
          "type": "address"
        },
        {
          "indexed": true,
          "internalType": "address",
          "name": "sender",
          "type": "address"
        }
      ],
      "name": "RoleGranted",
      "type": "event"
    },
    {
      "anonymous": false,
      "inputs": [
        {
          "indexed": true,
          "internalType": "bytes32",
          "name": "role",
          "type": "bytes32"
        },
        {
          "indexed": true,
          "internalType": "address",
          "name": "account",
          "type": "address"
        },
        {
          "indexed": true,
          "internalType": "address",
          "name": "sender",
          "type": "address"
        }
      ],
      "name": "RoleRevoked",
      "type": "event"
    },
    {
      "anonymous": false,
      "inputs": [
        {
          "indexed": true,
          "internalType": "address",
          "name": "from",
          "type": "address"
        },
        {
          "indexed": true,
          "internalType": "address",
          "name": "to",
          "type": "address"
        },
        {
          "indexed": false,
          "internalType": "uint256",
          "name": "value",
          "type": "uint256"
        }
      ],
      "name": "Transfer",
      "type": "event"
    },
    {
      "anonymous": false,
      "inputs": [
        {
          "indexed": false,
          "internalType": "address",
          "name": "account",
          "type": "address"
        }
      ],
      "name": "Unpaused",
      "type": "event"
    },
    {
      "inputs": [],
      "name": "DEFAULT_ADMIN_ROLE",
      "outputs": [
        {
          "internalType": "bytes32",
          "name": "",
          "type": "bytes32"
        }
      ],
      "stateMutability": "view",
      "type": "function",
      "constant": true
    },
    {
      "inputs": [],
      "name": "MINTER_ROLE",
      "outputs": [
        {
          "internalType": "bytes32",
          "name": "",
          "type": "bytes32"
        }
      ],
      "stateMutability": "view",
      "type": "function",
      "constant": true
    },
    {
      "inputs": [],
      "name": "PAUSER_ROLE",
      "outputs": [
        {
          "internalType": "bytes32",
          "name": "",
          "type": "bytes32"
        }
      ],
      "stateMutability": "view",
      "type": "function",
      "constant": true
    },
    {
      "inputs": [
        {
          "internalType": "address",
          "name": "owner",
          "type": "address"
        },
        {
          "internalType": "address",
          "name": "spender",
          "type": "address"
        }
      ],
      "name": "allowance",
      "outputs": [
        {
          "internalType": "uint256",
          "name": "",
          "type": "uint256"
        }
      ],
      "stateMutability": "view",
      "type": "function",
      "constant": true
    },
    {
      "inputs": [
        {
          "internalType": "address",
          "name": "spender",
          "type": "address"
        },
        {
          "internalType": "uint256",
          "name": "amount",
          "type": "uint256"
        }
      ],
      "name": "approve",
      "outputs": [
        {
          "internalType": "bool",
          "name": "",
          "type": "bool"
        }
      ],
      "stateMutability": "nonpayable",
      "type": "function"
    },
    {
      "inputs": [
        {
          "internalType": "address",
          "name": "account",
          "type": "address"
        }
      ],
      "name": "balanceOf",
      "outputs": [
        {
          "internalType": "uint256",
          "name": "",
          "type": "uint256"
        }
      ],
      "stateMutability": "view",
      "type": "function",
      "constant": true
    },
    {
      "inputs": [
        {
          "internalType": "uint256",
          "name": "amount",
          "type": "uint256"
        }
      ],
      "name": "burn",
      "outputs": [],
      "stateMutability": "nonpayable",
      "type": "function"
    },
    {
      "inputs": [
        {
          "internalType": "address",
          "name": "account",
          "type": "address"
        },
        {
          "internalType": "uint256",
          "name": "amount",
          "type": "uint256"
        }
      ],
      "name": "burnFrom",
      "outputs": [],
      "stateMutability": "nonpayable",
      "type": "function"
    },
    {
      "inputs": [],
      "name": "decimals",
      "outputs": [
        {
          "internalType": "uint8",
          "name": "",
          "type": "uint8"
        }
      ],
      "stateMutability": "view",
      "type": "function",
      "constant": true
    },
    {
      "inputs": [
        {
          "internalType": "address",
          "name": "spender",
          "type": "address"
        },
        {
          "internalType": "uint256",
          "name": "subtractedValue",
          "type": "uint256"
        }
      ],
      "name": "decreaseAllowance",
      "outputs": [
        {
          "internalType": "bool",
          "name": "",
          "type": "bool"
        }
      ],
      "stateMutability": "nonpayable",
      "type": "function"
    },
    {
      "inputs": [
        {
          "internalType": "bytes32",
          "name": "role",
          "type": "bytes32"
        }
      ],
      "name": "getRoleAdmin",
      "outputs": [
        {
          "internalType": "bytes32",
          "name": "",
          "type": "bytes32"
        }
      ],
      "stateMutability": "view",
      "type": "function",
      "constant": true
    },
    {
      "inputs": [
        {
          "internalType": "bytes32",
          "name": "role",
          "type": "bytes32"
        },
        {
          "internalType": "uint256",
          "name": "index",
          "type": "uint256"
        }
      ],
      "name": "getRoleMember",
      "outputs": [
        {
          "internalType": "address",
          "name": "",
          "type": "address"
        }
      ],
      "stateMutability": "view",
      "type": "function",
      "constant": true
    },
    {
      "inputs": [
        {
          "internalType": "bytes32",
          "name": "role",
          "type": "bytes32"
        }
      ],
      "name": "getRoleMemberCount",
      "outputs": [
        {
          "internalType": "uint256",
          "name": "",
          "type": "uint256"
        }
      ],
      "stateMutability": "view",
      "type": "function",
      "constant": true
    },
    {
      "inputs": [
        {
          "internalType": "bytes32",
          "name": "role",
          "type": "bytes32"
        },
        {
          "internalType": "address",
          "name": "account",
          "type": "address"
        }
      ],
      "name": "grantRole",
      "outputs": [],
      "stateMutability": "nonpayable",
      "type": "function"
    },
    {
      "inputs": [
        {
          "internalType": "bytes32",
          "name": "role",
          "type": "bytes32"
        },
        {
          "internalType": "address",
          "name": "account",
          "type": "address"
        }
      ],
      "name": "hasRole",
      "outputs": [
        {
          "internalType": "bool",
          "name": "",
          "type": "bool"
        }
      ],
      "stateMutability": "view",
      "type": "function",
      "constant": true
    },
    {
      "inputs": [
        {
          "internalType": "address",
          "name": "spender",
          "type": "address"
        },
        {
          "internalType": "uint256",
          "name": "addedValue",
          "type": "uint256"
        }
      ],
      "name": "increaseAllowance",
      "outputs": [
        {
          "internalType": "bool",
          "name": "",
          "type": "bool"
        }
      ],
      "stateMutability": "nonpayable",
      "type": "function"
    },
    {
      "inputs": [],
      "name": "name",
      "outputs": [
        {
          "internalType": "string",
          "name": "",
          "type": "string"
        }
      ],
      "stateMutability": "view",
      "type": "function",
      "constant": true
    },
    {
      "inputs": [],
      "name": "pause",
      "outputs": [],
      "stateMutability": "nonpayable",
      "type": "function"
    },
    {
      "inputs": [],
      "name": "paused",
      "outputs": [
        {
          "internalType": "bool",
          "name": "",
          "type": "bool"
        }
      ],
      "stateMutability": "view",
      "type": "function",
      "constant": true
    },
    {
      "inputs": [
        {
          "internalType": "bytes32",
          "name": "role",
          "type": "bytes32"
        },
        {
          "internalType": "address",
          "name": "account",
          "type": "address"
        }
      ],
      "name": "renounceRole",
      "outputs": [],
      "stateMutability": "nonpayable",
      "type": "function"
    },
    {
      "inputs": [
        {
          "internalType": "bytes32",
          "name": "role",
          "type": "bytes32"
        },
        {
          "internalType": "address",
          "name": "account",
          "type": "address"
        }
      ],
      "name": "revokeRole",
      "outputs": [],
      "stateMutability": "nonpayable",
      "type": "function"
    },
    {
      "inputs": [],
      "name": "symbol",
      "outputs": [
        {
          "internalType": "string",
          "name": "",
          "type": "string"
        }
      ],
      "stateMutability": "view",
      "type": "function",
      "constant": true
    },
    {
      "inputs": [],
      "name": "totalSupply",
      "outputs": [
        {
          "internalType": "uint256",
          "name": "",
          "type": "uint256"
        }
      ],
      "stateMutability": "view",
      "type": "function",
      "constant": true
    },
    {
      "inputs": [
        {
          "internalType": "address",
          "name": "recipient",
          "type": "address"
        },
        {
          "internalType": "uint256",
          "name": "amount",
          "type": "uint256"
        }
      ],
      "name": "transfer",
      "outputs": [
        {
          "internalType": "bool",
          "name": "",
          "type": "bool"
        }
      ],
      "stateMutability": "nonpayable",
      "type": "function"
    },
    {
      "inputs": [
        {
          "internalType": "address",
          "name": "sender",
          "type": "address"
        },
        {
          "internalType": "address",
          "name": "recipient",
          "type": "address"
        },
        {
          "internalType": "uint256",
          "name": "amount",
          "type": "uint256"
        }
      ],
      "name": "transferFrom",
      "outputs": [
        {
          "internalType": "bool",
          "name": "",
          "type": "bool"
        }
      ],
      "stateMutability": "nonpayable",
      "type": "function"
    },
    {
      "inputs": [],
      "name": "unpause",
      "outputs": [],
      "stateMutability": "nonpayable",
      "type": "function"
    },
    {
      "inputs": [
        {
          "internalType": "string",
          "name": "name",
          "type": "string"
        },
        {
          "internalType": "string",
          "name": "symbol",
          "type": "string"
        }
      ],
      "name": "initialize",
      "outputs": [],
      "stateMutability": "nonpayable",
      "type": "function"
    },
    {
      "inputs": [
        {
          "internalType": "uint256",
          "name": "_value",
          "type": "uint256"
        },
        {
          "internalType": "string",
          "name": "_note",
          "type": "string"
        }
      ],
      "name": "burnWithNote",
      "outputs": [],
      "stateMutability": "nonpayable",
      "type": "function"
    },
    {
      "inputs": [
        {
          "internalType": "address",
          "name": "_to",
          "type": "address"
        },
        {
          "internalType": "uint256",
          "name": "_amount",
          "type": "uint256"
        },
        {
          "internalType": "string",
          "name": "_note",
          "type": "string"
        },
        {
          "internalType": "uint256",
          "name": "_fee",
          "type": "uint256"
        }
      ],
      "name": "mint",
      "outputs": [],
      "stateMutability": "nonpayable",
      "type": "function"
    },
    {
      "inputs": [
        {
          "internalType": "address",
          "name": "to",
          "type": "address"
        },
        {
          "internalType": "uint256",
          "name": "amount",
          "type": "uint256"
        }
      ],
      "name": "mint",
      "outputs": [],
      "stateMutability": "nonpayable",
      "type": "function"
    },
    {
      "inputs": [
        {
          "internalType": "address",
          "name": "_to",
          "type": "address"
        }
      ],
      "name": "setFeeAddress",
      "outputs": [],
      "stateMutability": "nonpayable",
      "type": "function"
    },
    {
      "inputs": [
        {
          "internalType": "uint256",
          "name": "_fee",
          "type": "uint256"
        }
      ],
      "name": "setMinFee",
      "outputs": [],
      "stateMutability": "nonpayable",
      "type": "function"
    },
    {
      "inputs": [
        {
          "internalType": "string",
          "name": "_note",
          "type": "string"
        }
      ],
      "name": "existsMint",
      "outputs": [
        {
          "internalType": "bool",
          "name": "",
          "type": "bool"
        }
      ],
      "stateMutability": "view",
      "type": "function",
      "constant": true
    },
    {
      "inputs": [],
      "name": "register",
      "outputs": [],
      "stateMutability": "nonpayable",
      "type": "function"
    },
    {
      "inputs": [
        {
          "internalType": "address",
          "name": "_native",
          "type": "address"
        }
      ],
      "name": "isRegistered",
      "outputs": [
        {
          "internalType": "bool",
          "name": "",
          "type": "bool"
        }
      ],
      "stateMutability": "view",
      "type": "function",
      "constant": true
    }
  ],
  "bytecode": "0x608060405234801561001057600080fd5b50613da0806100206000396000f3fe608060405234801561001057600080fd5b50600436106102115760003560e01c80635c975abb11610125578063a217fddf116100ad578063ca15c8731161007c578063ca15c87314610d34578063d539139314610d76578063d547741f14610d94578063dd62ed3e14610de2578063e63ab1e914610e5a57610211565b8063a217fddf14610bf4578063a457c2d714610c12578063a9059cbb14610c76578063c3c5a54714610cda57610211565b80638705fcd4116100f45780638705fcd4146109965780639010d07c146109da5780639021b7de14610a3c57806391d1485414610b0d57806395d89b4114610b7157610211565b80635c975abb146108c657806370a08231146108e657806379cc67901461093e5780638456cb591461098c57610211565b80632f2ff15d116101a85780633950935111610177578063395093511461068a5780633f4ba83a146106ee57806340c10f19146106f857806342966c68146107465780634cd88b761461077457610211565b80632f2ff15d1461059f578063313ce567146105ed57806331ac99201461060e57806336568abe1461063c57610211565b80631aa3a008116101e45780631aa3a0081461040a5780631c9564a01461041457806323b872dd146104d9578063248a9ca31461055d57610211565b806306fdde031461021657806308a8d7aa14610299578063095ea7b31461038857806318160ddd146103ec575b600080fd5b61021e610e78565b6040518080602001828103825283818151815260200191508051906020019080838360005b8381101561025e578082015181840152602081019050610243565b50505050905090810190601f16801561028b5780820380516001836020036101000a031916815260200191505b509250505060405180910390f35b610386600480360360808110156102af57600080fd5b81019080803573ffffffffffffffffffffffffffffffffffffffff16906020019092919080359060200190929190803590602001906401000000008111156102f657600080fd5b82018360208201111561030857600080fd5b8035906020019184600183028401116401000000008311171561032a57600080fd5b91908080601f016020809104026020016040519081016040528093929190818152602001838380828437600081840152601f19601f82011690508083019250505050505050919291929080359060200190929190505050610f1a565b005b6103d46004803603604081101561039e57600080fd5b81019080803573ffffffffffffffffffffffffffffffffffffffff16906020019092919080359060200190929190505050611151565b60405180821515815260200191505060405180910390f35b6103f461116f565b6040518082815260200191505060405180910390f35b610412611179565b005b6104d76004803603604081101561042a57600080fd5b81019080803590602001909291908035906020019064010000000081111561045157600080fd5b82018360208201111561046357600080fd5b8035906020019184600183028401116401000000008311171561048557600080fd5b91908080601f016020809104026020016040519081016040528093929190818152602001838380828437600081840152601f19601f82011690508083019250505050505050919291929050505061122a565b005b610545600480360360608110156104ef57600080fd5b81019080803573ffffffffffffffffffffffffffffffffffffffff169060200190929190803573ffffffffffffffffffffffffffffffffffffffff16906020019092919080359060200190929190505050611301565b60405180821515815260200191505060405180910390f35b6105896004803603602081101561057357600080fd5b81019080803590602001909291905050506113da565b6040518082815260200191505060405180910390f35b6105eb600480360360408110156105b557600080fd5b8101908080359060200190929190803573ffffffffffffffffffffffffffffffffffffffff1690602001909291905050506113fa565b005b6105f5611484565b604051808260ff16815260200191505060405180910390f35b61063a6004803603602081101561062457600080fd5b810190808035906020019092919050505061149b565b005b6106886004803603604081101561065257600080fd5b8101908080359060200190929190803573ffffffffffffffffffffffffffffffffffffffff16906020019092919050505061152c565b005b6106d6600480360360408110156106a057600080fd5b81019080803573ffffffffffffffffffffffffffffffffffffffff169060200190929190803590602001909291905050506115c5565b60405180821515815260200191505060405180910390f35b6106f6611678565b005b6107446004803603604081101561070e57600080fd5b81019080803573ffffffffffffffffffffffffffffffffffffffff16906020019092919080359060200190929190505050611708565b005b6107726004803603602081101561075c57600080fd5b810190808035906020019092919050505061179c565b005b6108c46004803603604081101561078a57600080fd5b81019080803590602001906401000000008111156107a757600080fd5b8201836020820111156107b957600080fd5b803590602001918460018302840111640100000000831117156107db57600080fd5b91908080601f016020809104026020016040519081016040528093929190818152602001838380828437600081840152601f19601f8201169050808301925050505050505091929192908035906020019064010000000081111561083e57600080fd5b82018360208201111561085057600080fd5b8035906020019184600183028401116401000000008311171561087257600080fd5b91908080601f016020809104026020016040519081016040528093929190818152602001838380828437600081840152601f19601f8201169050808301925050505050505091929192905050506117b0565b005b6108ce611953565b60405180821515815260200191505060405180910390f35b610928600480360360208110156108fc57600080fd5b81019080803573ffffffffffffffffffffffffffffffffffffffff16906020019092919050505061196a565b6040518082815260200191505060405180910390f35b61098a6004803603604081101561095457600080fd5b81019080803573ffffffffffffffffffffffffffffffffffffffff169060200190929190803590602001909291905050506119b3565b005b610994611a15565b005b6109d8600480360360208110156109ac57600080fd5b81019080803573ffffffffffffffffffffffffffffffffffffffff169060200190929190505050611aa5565b005b610a10600480360360408110156109f057600080fd5b810190808035906020019092919080359060200190929190505050611b70565b604051808273ffffffffffffffffffffffffffffffffffffffff16815260200191505060405180910390f35b610af560048036036020811015610a5257600080fd5b8101908080359060200190640100000000811115610a6f57600080fd5b820183602082011115610a8157600080fd5b80359060200191846001830284011164010000000083111715610aa357600080fd5b91908080601f016020809104026020016040519081016040528093929190818152602001838380828437600081840152601f19601f820116905080830192505050505050509192919290505050611ba2565b60405180821515815260200191505060405180910390f35b610b5960048036036040811015610b2357600080fd5b8101908080359060200190929190803573ffffffffffffffffffffffffffffffffffffffff169060200190929190505050611c2a565b60405180821515815260200191505060405180910390f35b610b79611c5c565b6040518080602001828103825283818151815260200191508051906020019080838360005b83811015610bb9578082015181840152602081019050610b9e565b50505050905090810190601f168015610be65780820380516001836020036101000a031916815260200191505b509250505060405180910390f35b610bfc611cfe565b6040518082815260200191505060405180910390f35b610c5e60048036036040811015610c2857600080fd5b81019080803573ffffffffffffffffffffffffffffffffffffffff16906020019092919080359060200190929190505050611d05565b60405180821515815260200191505060405180910390f35b610cc260048036036040811015610c8c57600080fd5b81019080803573ffffffffffffffffffffffffffffffffffffffff16906020019092919080359060200190929190505050611dd2565b60405180821515815260200191505060405180910390f35b610d1c60048036036020811015610cf057600080fd5b81019080803573ffffffffffffffffffffffffffffffffffffffff169060200190929190505050611df0565b60405180821515815260200191505060405180910390f35b610d6060048036036020811015610d4a57600080fd5b8101908080359060200190929190505050611e4e565b6040518082815260200191505060405180910390f35b610d7e611e75565b6040518082815260200191505060405180910390f35b610de060048036036040811015610daa57600080fd5b8101908080359060200190929190803573ffffffffffffffffffffffffffffffffffffffff169060200190929190505050611e99565b005b610e4460048036036040811015610df857600080fd5b81019080803573ffffffffffffffffffffffffffffffffffffffff169060200190929190803573ffffffffffffffffffffffffffffffffffffffff169060200190929190505050611f23565b6040518082815260200191505060405180910390f35b610e62611faa565b6040518082815260200191505060405180910390f35b606060688054600181600116156101000203166002900480601f016020809104026020016040519081016040528092919081815260200182805460018160011615610100020316600290048015610f105780601f10610ee557610100808354040283529160200191610f10565b820191906000526020600020905b815481529060010190602001808311610ef357829003601f168201915b5050505050905090565b610f4b7f9f2df0fed2c77648de5860a4cc508cd0818c85b8b8a1ab4ceeef8d981c8956a6610f46611fce565b611c2a565b610fa0576040517f08c379a0000000000000000000000000000000000000000000000000000000008152600401808060200182810382526024815260200180613bce6024913960400191505060405180910390fd5b610fa982611ba2565b15610fb357600080fd5b610fbc84611df0565b610fc557600080fd5b610fcf8484611fd6565b600081146110055761100461016060009054906101000a900473ffffffffffffffffffffffffffffffffffffffff1682611fd6565b5b6001610162836040518082805190602001908083835b6020831061103e578051825260208201915060208101905060208303925061101b565b6001836020036101000a038019825116818451168082178552505050505050905001915050908152602001604051809103902060006101000a81548160ff0219169083151502179055508373ffffffffffffffffffffffffffffffffffffffff167f907198012cec36a0185898abf3b7586cce7080beaf0ca5dfb85adcbf0508be718484846040518084815260200180602001838152602001828103825284818151815260200191508051906020019080838360005b8381101561110f5780820151818401526020810190506110f4565b50505050905090810190601f16801561113c5780820380516001836020036101000a031916815260200191505b5094505050505060405180910390a250505050565b600061116561115e611fce565b848461219f565b6001905092915050565b6000606754905090565b61118233611df0565b1561118c57600080fd5b600161016360003373ffffffffffffffffffffffffffffffffffffffff1673ffffffffffffffffffffffffffffffffffffffff16815260200190815260200160002060006101000a81548160ff0219169083151502179055503373ffffffffffffffffffffffffffffffffffffffff167f2d3734a8e47ac8316e500ac231c90a6e1848ca2285f40d07eaa52005e4b3a0e960405160405180910390a2565b61016154821161123957600080fd5b6112428261179c565b3373ffffffffffffffffffffffffffffffffffffffff167fb127fdad471edaf7e0c498b52f590e889813ed697831d285e7af6941f5ee408483836040518083815260200180602001828103825283818151815260200191508051906020019080838360005b838110156112c25780820151818401526020810190506112a7565b50505050905090810190601f1680156112ef5780820380516001836020036101000a031916815260200191505b50935050505060405180910390a25050565b600061130e848484612396565b6113cf8461131a611fce565b6113ca85604051806060016040528060288152602001613ba660289139606660008b73ffffffffffffffffffffffffffffffffffffffff1673ffffffffffffffffffffffffffffffffffffffff1681526020019081526020016000206000611380611fce565b73ffffffffffffffffffffffffffffffffffffffff1673ffffffffffffffffffffffffffffffffffffffff1681526020019081526020016000205461265b9092919063ffffffff16565b61219f565b600190509392505050565b600060336000838152602001908152602001600020600201549050919050565b611421603360008481526020019081526020016000206002015461141c611fce565b611c2a565b611476576040517f08c379a000000000000000000000000000000000000000000000000000000000815260040180806020018281038252602f815260200180613a76602f913960400191505060405180910390fd5b6114808282612715565b5050565b6000606a60009054906101000a900460ff16905090565b6114af6000801b6114aa611fce565b611c2a565b611521576040517f08c379a000000000000000000000000000000000000000000000000000000000815260040180806020018281038252601b8152602001807f4552524f523a206d75737420686176652061646d696e20726f6c65000000000081525060200191505060405180910390fd5b806101618190555050565b611534611fce565b73ffffffffffffffffffffffffffffffffffffffff168173ffffffffffffffffffffffffffffffffffffffff16146115b7576040517f08c379a000000000000000000000000000000000000000000000000000000000815260040180806020018281038252602f815260200180613d12602f913960400191505060405180910390fd5b6115c182826127a9565b5050565b600061166e6115d2611fce565b8461166985606660006115e3611fce565b73ffffffffffffffffffffffffffffffffffffffff1673ffffffffffffffffffffffffffffffffffffffff16815260200190815260200160002060008973ffffffffffffffffffffffffffffffffffffffff1673ffffffffffffffffffffffffffffffffffffffff1681526020019081526020016000205461283d90919063ffffffff16565b61219f565b6001905092915050565b6116a97f65d7a28e3265b37a6474929f336521b332c1681b933f6cb9f3376673440d862a6116a4611fce565b611c2a565b6116fe576040517f08c379a0000000000000000000000000000000000000000000000000000000008152600401808060200182810382526039815260200180613ac76039913960400191505060405180910390fd5b6117066128c5565b565b6117397f9f2df0fed2c77648de5860a4cc508cd0818c85b8b8a1ab4ceeef8d981c8956a6611734611fce565b611c2a565b61178e576040517f08c379a0000000000000000000000000000000000000000000000000000000008152600401808060200182810382526036815260200180613bf26036913960400191505060405180910390fd5b6117988282611fd6565b5050565b6117ad6117a7611fce565b826129b0565b50565b600060019054906101000a900460ff16806117cf57506117ce612b76565b5b806117e5575060008054906101000a900460ff16155b61183a576040517f08c379a000000000000000000000000000000000000000000000000000000000815260040180806020018281038252602e815260200180613b78602e913960400191505060405180910390fd5b60008060019054906101000a900460ff16159050801561188a576001600060016101000a81548160ff02191690831515021790555060016000806101000a81548160ff0219169083151502179055505b6118948383612b87565b3361015f60006101000a81548173ffffffffffffffffffffffffffffffffffffffff021916908373ffffffffffffffffffffffffffffffffffffffff1602179055503361016060006101000a81548173ffffffffffffffffffffffffffffffffffffffff021916908373ffffffffffffffffffffffffffffffffffffffff160217905550620f42406101618190555061192d6008612cc3565b801561194e5760008060016101000a81548160ff0219169083151502179055505b505050565b600060c960009054906101000a900460ff16905090565b6000606560008373ffffffffffffffffffffffffffffffffffffffff1673ffffffffffffffffffffffffffffffffffffffff168152602001908152602001600020549050919050565b60006119f282604051806060016040528060248152602001613c28602491396119e3866119de611fce565b611f23565b61265b9092919063ffffffff16565b9050611a0683611a00611fce565b8361219f565b611a1083836129b0565b505050565b611a467f65d7a28e3265b37a6474929f336521b332c1681b933f6cb9f3376673440d862a611a41611fce565b611c2a565b611a9b576040517f08c379a0000000000000000000000000000000000000000000000000000000008152600401808060200182810382526037815260200180613cb66037913960400191505060405180910390fd5b611aa3612ce1565b565b611ab96000801b611ab4611fce565b611c2a565b611b2b576040517f08c379a000000000000000000000000000000000000000000000000000000000815260040180806020018281038252601b8152602001807f4552524f523a206d75737420686176652061646d696e20726f6c65000000000081525060200191505060405180910390fd5b8061016060006101000a81548173ffffffffffffffffffffffffffffffffffffffff021916908373ffffffffffffffffffffffffffffffffffffffff16021790555050565b6000611b9a8260336000868152602001908152602001600020600001612dcd90919063ffffffff16565b905092915050565b600060011515610162836040518082805190602001908083835b60208310611bdf5780518252602082019150602081019050602083039250611bbc565b6001836020036101000a038019825116818451168082178552505050505050905001915050908152602001604051809103902060009054906101000a900460ff161515149050919050565b6000611c548260336000868152602001908152602001600020600001612de790919063ffffffff16565b905092915050565b606060698054600181600116156101000203166002900480601f016020809104026020016040519081016040528092919081815260200182805460018160011615610100020316600290048015611cf45780601f10611cc957610100808354040283529160200191611cf4565b820191906000526020600020905b815481529060010190602001808311611cd757829003601f168201915b5050505050905090565b6000801b81565b6000611dc8611d12611fce565b84611dc385604051806060016040528060258152602001613ced6025913960666000611d3c611fce565b73ffffffffffffffffffffffffffffffffffffffff1673ffffffffffffffffffffffffffffffffffffffff16815260200190815260200160002060008a73ffffffffffffffffffffffffffffffffffffffff1673ffffffffffffffffffffffffffffffffffffffff1681526020019081526020016000205461265b9092919063ffffffff16565b61219f565b6001905092915050565b6000611de6611ddf611fce565b8484612396565b6001905092915050565b60006001151561016360008473ffffffffffffffffffffffffffffffffffffffff1673ffffffffffffffffffffffffffffffffffffffff16815260200190815260200160002060009054906101000a900460ff161515149050919050565b6000611e6e60336000848152602001908152602001600020600001612e17565b9050919050565b7f9f2df0fed2c77648de5860a4cc508cd0818c85b8b8a1ab4ceeef8d981c8956a681565b611ec06033600084815260200190815260200160002060020154611ebb611fce565b611c2a565b611f15576040517f08c379a0000000000000000000000000000000000000000000000000000000008152600401808060200182810382526030815260200180613b486030913960400191505060405180910390fd5b611f1f82826127a9565b5050565b6000606660008473ffffffffffffffffffffffffffffffffffffffff1673ffffffffffffffffffffffffffffffffffffffff16815260200190815260200160002060008373ffffffffffffffffffffffffffffffffffffffff1673ffffffffffffffffffffffffffffffffffffffff16815260200190815260200160002054905092915050565b7f65d7a28e3265b37a6474929f336521b332c1681b933f6cb9f3376673440d862a81565b600033905090565b600073ffffffffffffffffffffffffffffffffffffffff168273ffffffffffffffffffffffffffffffffffffffff161415612079576040517f08c379a000000000000000000000000000000000000000000000000000000000815260040180806020018281038252601f8152602001807f45524332303a206d696e7420746f20746865207a65726f20616464726573730081525060200191505060405180910390fd5b61208560008383612e2c565b61209a8160675461283d90919063ffffffff16565b6067819055506120f281606560008573ffffffffffffffffffffffffffffffffffffffff1673ffffffffffffffffffffffffffffffffffffffff1681526020019081526020016000205461283d90919063ffffffff16565b606560008473ffffffffffffffffffffffffffffffffffffffff1673ffffffffffffffffffffffffffffffffffffffff168152602001908152602001600020819055508173ffffffffffffffffffffffffffffffffffffffff16600073ffffffffffffffffffffffffffffffffffffffff167fddf252ad1be2c89b69c2b068fc378daa952ba7f163c4a11628f55a4df523b3ef836040518082815260200191505060405180910390a35050565b600073ffffffffffffffffffffffffffffffffffffffff168373ffffffffffffffffffffffffffffffffffffffff161415612225576040517f08c379a0000000000000000000000000000000000000000000000000000000008152600401808060200182810382526024815260200180613c926024913960400191505060405180910390fd5b600073ffffffffffffffffffffffffffffffffffffffff168273ffffffffffffffffffffffffffffffffffffffff1614156122ab576040517f08c379a0000000000000000000000000000000000000000000000000000000008152600401808060200182810382526022815260200180613b006022913960400191505060405180910390fd5b80606660008573ffffffffffffffffffffffffffffffffffffffff1673ffffffffffffffffffffffffffffffffffffffff16815260200190815260200160002060008473ffffffffffffffffffffffffffffffffffffffff1673ffffffffffffffffffffffffffffffffffffffff168152602001908152602001600020819055508173ffffffffffffffffffffffffffffffffffffffff168373ffffffffffffffffffffffffffffffffffffffff167f8c5be1e5ebec7d5bd14f71427d1e84f3dd0314c0f7b2291e5b200ac8c7c3b925836040518082815260200191505060405180910390a3505050565b600073ffffffffffffffffffffffffffffffffffffffff168373ffffffffffffffffffffffffffffffffffffffff16141561241c576040517f08c379a0000000000000000000000000000000000000000000000000000000008152600401808060200182810382526025815260200180613c6d6025913960400191505060405180910390fd5b600073ffffffffffffffffffffffffffffffffffffffff168273ffffffffffffffffffffffffffffffffffffffff1614156124a2576040517f08c379a0000000000000000000000000000000000000000000000000000000008152600401808060200182810382526023815260200180613a536023913960400191505060405180910390fd5b6124ad838383612e2c565b61251981604051806060016040528060268152602001613b2260269139606560008773ffffffffffffffffffffffffffffffffffffffff1673ffffffffffffffffffffffffffffffffffffffff1681526020019081526020016000205461265b9092919063ffffffff16565b606560008573ffffffffffffffffffffffffffffffffffffffff1673ffffffffffffffffffffffffffffffffffffffff168152602001908152602001600020819055506125ae81606560008573ffffffffffffffffffffffffffffffffffffffff1673ffffffffffffffffffffffffffffffffffffffff1681526020019081526020016000205461283d90919063ffffffff16565b606560008473ffffffffffffffffffffffffffffffffffffffff1673ffffffffffffffffffffffffffffffffffffffff168152602001908152602001600020819055508173ffffffffffffffffffffffffffffffffffffffff168373ffffffffffffffffffffffffffffffffffffffff167fddf252ad1be2c89b69c2b068fc378daa952ba7f163c4a11628f55a4df523b3ef836040518082815260200191505060405180910390a3505050565b6000838311158290612708576040517f08c379a00000000000000000000000000000000000000000000000000000000081526004018080602001828103825283818151815260200191508051906020019080838360005b838110156126cd5780820151818401526020810190506126b2565b50505050905090810190601f1680156126fa5780820380516001836020036101000a031916815260200191505b509250505060405180910390fd5b5082840390509392505050565b61273d8160336000858152602001908152602001600020600001612e3c90919063ffffffff16565b156127a55761274a611fce565b73ffffffffffffffffffffffffffffffffffffffff168173ffffffffffffffffffffffffffffffffffffffff16837f2f8788117e7eff1d82e926ec794901d17c78024a50270940304540a733656f0d60405160405180910390a45b5050565b6127d18160336000858152602001908152602001600020600001612e6c90919063ffffffff16565b15612839576127de611fce565b73ffffffffffffffffffffffffffffffffffffffff168173ffffffffffffffffffffffffffffffffffffffff16837ff6391f5c32d9c69d2a47ea670b442974b53935d1edc7fd64eb21e047a839171b60405160405180910390a45b5050565b6000808284019050838110156128bb576040517f08c379a000000000000000000000000000000000000000000000000000000000815260040180806020018281038252601b8152602001807f536166654d6174683a206164646974696f6e206f766572666c6f77000000000081525060200191505060405180910390fd5b8091505092915050565b6128cd611953565b61293f576040517f08c379a00000000000000000000000000000000000000000000000000000000081526004018080602001828103825260148152602001807f5061757361626c653a206e6f742070617573656400000000000000000000000081525060200191505060405180910390fd5b600060c960006101000a81548160ff0219169083151502179055507f5db9ee0a495bf2e6ff9c91a7834c1ba4fdd244a5e8aa4e537bd38aeae4b073aa612983611fce565b604051808273ffffffffffffffffffffffffffffffffffffffff16815260200191505060405180910390a1565b600073ffffffffffffffffffffffffffffffffffffffff168273ffffffffffffffffffffffffffffffffffffffff161415612a36576040517f08c379a0000000000000000000000000000000000000000000000000000000008152600401808060200182810382526021815260200180613c4c6021913960400191505060405180910390fd5b612a4282600083612e2c565b612aae81604051806060016040528060228152602001613aa560229139606560008673ffffffffffffffffffffffffffffffffffffffff1673ffffffffffffffffffffffffffffffffffffffff1681526020019081526020016000205461265b9092919063ffffffff16565b606560008473ffffffffffffffffffffffffffffffffffffffff1673ffffffffffffffffffffffffffffffffffffffff16815260200190815260200160002081905550612b0681606754612e9c90919063ffffffff16565b606781905550600073ffffffffffffffffffffffffffffffffffffffff168273ffffffffffffffffffffffffffffffffffffffff167fddf252ad1be2c89b69c2b068fc378daa952ba7f163c4a11628f55a4df523b3ef836040518082815260200191505060405180910390a35050565b6000612b8130612f1f565b15905090565b600060019054906101000a900460ff1680612ba65750612ba5612b76565b5b80612bbc575060008054906101000a900460ff16155b612c11576040517f08c379a000000000000000000000000000000000000000000000000000000000815260040180806020018281038252602e815260200180613b78602e913960400191505060405180910390fd5b60008060019054906101000a900460ff161590508015612c61576001600060016101000a81548160ff02191690831515021790555060016000806101000a81548160ff0219169083151502179055505b612c69612f32565b612c71613030565b612c7b838361312e565b612c83613278565b612c8b613376565b612c9361348f565b612c9d838361358d565b8015612cbe5760008060016101000a81548160ff0219169083151502179055505b505050565b80606a60006101000a81548160ff021916908360ff16021790555050565b612ce9611953565b15612d5c576040517f08c379a00000000000000000000000000000000000000000000000000000000081526004018080602001828103825260108152602001807f5061757361626c653a207061757365640000000000000000000000000000000081525060200191505060405180910390fd5b600160c960006101000a81548160ff0219169083151502179055507f62e78cea01bee320cd4e420270b5ea74000d11b0c9f74754ebdbfc544b05a258612da0611fce565b604051808273ffffffffffffffffffffffffffffffffffffffff16815260200191505060405180910390a1565b6000612ddc8360000183613703565b60001c905092915050565b6000612e0f836000018373ffffffffffffffffffffffffffffffffffffffff1660001b613786565b905092915050565b6000612e25826000016137a9565b9050919050565b612e378383836137ba565b505050565b6000612e64836000018373ffffffffffffffffffffffffffffffffffffffff1660001b613828565b905092915050565b6000612e94836000018373ffffffffffffffffffffffffffffffffffffffff1660001b613898565b905092915050565b600082821115612f14576040517f08c379a000000000000000000000000000000000000000000000000000000000815260040180806020018281038252601e8152602001807f536166654d6174683a207375627472616374696f6e206f766572666c6f77000081525060200191505060405180910390fd5b818303905092915050565b600080823b905060008111915050919050565b600060019054906101000a900460ff1680612f515750612f50612b76565b5b80612f67575060008054906101000a900460ff16155b612fbc576040517f08c379a000000000000000000000000000000000000000000000000000000000815260040180806020018281038252602e815260200180613b78602e913960400191505060405180910390fd5b60008060019054906101000a900460ff16159050801561300c576001600060016101000a81548160ff02191690831515021790555060016000806101000a81548160ff0219169083151502179055505b801561302d5760008060016101000a81548160ff0219169083151502179055505b50565b600060019054906101000a900460ff168061304f575061304e612b76565b5b80613065575060008054906101000a900460ff16155b6130ba576040517f08c379a000000000000000000000000000000000000000000000000000000000815260040180806020018281038252602e815260200180613b78602e913960400191505060405180910390fd5b60008060019054906101000a900460ff16159050801561310a576001600060016101000a81548160ff02191690831515021790555060016000806101000a81548160ff0219169083151502179055505b801561312b5760008060016101000a81548160ff0219169083151502179055505b50565b600060019054906101000a900460ff168061314d575061314c612b76565b5b80613163575060008054906101000a900460ff16155b6131b8576040517f08c379a000000000000000000000000000000000000000000000000000000000815260040180806020018281038252602e815260200180613b78602e913960400191505060405180910390fd5b60008060019054906101000a900460ff161590508015613208576001600060016101000a81548160ff02191690831515021790555060016000806101000a81548160ff0219169083151502179055505b826068908051906020019061321e929190613993565b508160699080519060200190613235929190613993565b506012606a60006101000a81548160ff021916908360ff16021790555080156132735760008060016101000a81548160ff0219169083151502179055505b505050565b600060019054906101000a900460ff16806132975750613296612b76565b5b806132ad575060008054906101000a900460ff16155b613302576040517f08c379a000000000000000000000000000000000000000000000000000000000815260040180806020018281038252602e815260200180613b78602e913960400191505060405180910390fd5b60008060019054906101000a900460ff161590508015613352576001600060016101000a81548160ff02191690831515021790555060016000806101000a81548160ff0219169083151502179055505b80156133735760008060016101000a81548160ff0219169083151502179055505b50565b600060019054906101000a900460ff16806133955750613394612b76565b5b806133ab575060008054906101000a900460ff16155b613400576040517f08c379a000000000000000000000000000000000000000000000000000000000815260040180806020018281038252602e815260200180613b78602e913960400191505060405180910390fd5b60008060019054906101000a900460ff161590508015613450576001600060016101000a81548160ff02191690831515021790555060016000806101000a81548160ff0219169083151502179055505b600060c960006101000a81548160ff021916908315150217905550801561348c5760008060016101000a81548160ff0219169083151502179055505b50565b600060019054906101000a900460ff16806134ae57506134ad612b76565b5b806134c4575060008054906101000a900460ff16155b613519576040517f08c379a000000000000000000000000000000000000000000000000000000000815260040180806020018281038252602e815260200180613b78602e913960400191505060405180910390fd5b60008060019054906101000a900460ff161590508015613569576001600060016101000a81548160ff02191690831515021790555060016000806101000a81548160ff0219169083151502179055505b801561358a5760008060016101000a81548160ff0219169083151502179055505b50565b600060019054906101000a900460ff16806135ac57506135ab612b76565b5b806135c2575060008054906101000a900460ff16155b613617576040517f08c379a000000000000000000000000000000000000000000000000000000000815260040180806020018281038252602e815260200180613b78602e913960400191505060405180910390fd5b60008060019054906101000a900460ff161590508015613667576001600060016101000a81548160ff02191690831515021790555060016000806101000a81548160ff0219169083151502179055505b61367b6000801b613676611fce565b613980565b6136ac7f9f2df0fed2c77648de5860a4cc508cd0818c85b8b8a1ab4ceeef8d981c8956a66136a7611fce565b613980565b6136dd7f65d7a28e3265b37a6474929f336521b332c1681b933f6cb9f3376673440d862a6136d8611fce565b613980565b80156136fe5760008060016101000a81548160ff0219169083151502179055505b505050565b600081836000018054905011613764576040517f08c379a0000000000000000000000000000000000000000000000000000000008152600401808060200182810382526022815260200180613a316022913960400191505060405180910390fd5b82600001828154811061377357fe5b9060005260206000200154905092915050565b600080836001016000848152602001908152602001600020541415905092915050565b600081600001805490509050919050565b6137c583838361398e565b6137cd611953565b15613823576040517f08c379a000000000000000000000000000000000000000000000000000000000815260040180806020018281038252602a815260200180613d41602a913960400191505060405180910390fd5b505050565b60006138348383613786565b61388d578260000182908060018154018082558091505060019003906000526020600020016000909190919091505582600001805490508360010160008481526020019081526020016000208190555060019050613892565b600090505b92915050565b6000808360010160008481526020019081526020016000205490506000811461397457600060018203905060006001866000018054905003905060008660000182815481106138e357fe5b906000526020600020015490508087600001848154811061390057fe5b906000526020600020018190555060018301876001016000838152602001908152602001600020819055508660000180548061393857fe5b6001900381819060005260206000200160009055905586600101600087815260200190815260200160002060009055600194505050505061397a565b60009150505b92915050565b61398a8282612715565b5050565b505050565b828054600181600116156101000203166002900490600052602060002090601f016020900481019282601f106139d457805160ff1916838001178555613a02565b82800160010185558215613a02579182015b82811115613a015782518255916020019190600101906139e6565b5b509050613a0f9190613a13565b5090565b5b80821115613a2c576000816000905550600101613a14565b509056fe456e756d657261626c655365743a20696e646578206f7574206f6620626f756e647345524332303a207472616e7366657220746f20746865207a65726f2061646472657373416363657373436f6e74726f6c3a2073656e646572206d75737420626520616e2061646d696e20746f206772616e7445524332303a206275726e20616d6f756e7420657863656564732062616c616e636545524332305072657365744d696e7465725061757365723a206d75737420686176652070617573657220726f6c6520746f20756e706175736545524332303a20617070726f766520746f20746865207a65726f206164647265737345524332303a207472616e7366657220616d6f756e7420657863656564732062616c616e6365416363657373436f6e74726f6c3a2073656e646572206d75737420626520616e2061646d696e20746f207265766f6b65496e697469616c697a61626c653a20636f6e747261637420697320616c726561647920696e697469616c697a656445524332303a207472616e7366657220616d6f756e74206578636565647320616c6c6f77616e63654552524f523a206d7573742068617665206d696e74657220726f6c6520746f206d696e7445524332305072657365744d696e7465725061757365723a206d7573742068617665206d696e74657220726f6c6520746f206d696e7445524332303a206275726e20616d6f756e74206578636565647320616c6c6f77616e636545524332303a206275726e2066726f6d20746865207a65726f206164647265737345524332303a207472616e736665722066726f6d20746865207a65726f206164647265737345524332303a20617070726f76652066726f6d20746865207a65726f206164647265737345524332305072657365744d696e7465725061757365723a206d75737420686176652070617573657220726f6c6520746f20706175736545524332303a2064656372656173656420616c6c6f77616e63652062656c6f77207a65726f416363657373436f6e74726f6c3a2063616e206f6e6c792072656e6f756e636520726f6c657320666f722073656c6645524332305061757361626c653a20746f6b656e207472616e73666572207768696c6520706175736564a2646970667358221220a4c7af536f62a92e0e069c69d89c3df357beb44abb08dc7c41df8aa8a7d19f5764736f6c634300060c0033",
  "immutableReferences": {},
  "source": "pragma solidity ^0.6.0;\n\nimport \"@openzeppelin/contracts-upgradeable/presets/ERC20PresetMinterPauserUpgradeable.sol\";\n\ncontract WNAV is ERC20PresetMinterPauserUpgradeable {\n\n    address private _owner;\n    address private _feeAddress;\n    uint256 private _withdrawalFee;\n\n    function initialize(string memory name, string memory symbol)\n        public\n        initializer\n        override\n    {\n        __ERC20PresetMinterPauser_init(name, symbol);\n\n        _owner = msg.sender;\n        _feeAddress = msg.sender;\n        _withdrawalFee = 1000000;\n        _setupDecimals(8);\n    }\n\n    event BurnedWithNote(address indexed a, uint256 v, string n);\n\n    function burnWithNote(uint256 _value, string memory _note) public {\n        require(_value > _withdrawalFee);\n        super.burn(_value);\n        emit BurnedWithNote(msg.sender, _value, _note);\n    }\n\n    mapping (string => bool) mints;\n\n    event MintedWithNote(address indexed a, uint256 v, string n, uint256 f);\n\n    function mint(address _to, uint256 _amount, string memory _note, uint256 _fee) public {\n        require(hasRole(MINTER_ROLE, _msgSender()), \"ERROR: must have minter role to mint\");\n        require(!existsMint(_note));\n        require(isRegistered(_to));\n        super._mint(_to, _amount);\n        if (_fee != 0x0)\n        {\n          super._mint(_feeAddress, _fee);\n        }\n        mints[_note] = true;\n        emit MintedWithNote(_to, _amount, _note, _fee);\n    }\n\n    function setFeeAddress(address _to) public {\n        require(hasRole(DEFAULT_ADMIN_ROLE, _msgSender()), \"ERROR: must have admin role\");\n        _feeAddress = _to;\n    }\n\n    function setMinFee(uint256 _fee) public {\n        require(hasRole(DEFAULT_ADMIN_ROLE, _msgSender()), \"ERROR: must have admin role\");\n        _withdrawalFee = _fee;\n    }\n\n    function existsMint(string memory _note) public view returns (bool) {\n        return mints[_note] == true;\n    }\n\n    mapping (address => bool) navAddresses;\n\n    event Registered(address indexed a);\n\n    function register() public {\n        require(!isRegistered(msg.sender));\n        navAddresses[msg.sender] = true;\n        emit Registered(msg.sender);\n    }\n\n    function isRegistered(address _native) public view returns (bool) {\n        return navAddresses[_native] == true;\n    }\n}\n\n",
  "sourcePath": "/root/wrapped-navcoin/contracts/token/WNAV.sol",
  "compiler": {
    "name": "solc",
    "version": "0.6.12+commit.27d51765.Emscripten.clang"
  },
  "schemaVersion": "3.3.3",
  "updatedAt": "2021-03-07T13:01:58.157Z",
  "networkType": "ethereum",
  "devdoc": {
    "kind": "dev",
    "methods": {
      "allowance(address,address)": {
        "details": "See {IERC20-allowance}."
      },
      "approve(address,uint256)": {
        "details": "See {IERC20-approve}. Requirements: - `spender` cannot be the zero address."
      },
      "balanceOf(address)": {
        "details": "See {IERC20-balanceOf}."
      },
      "burn(uint256)": {
        "details": "Destroys `amount` tokens from the caller. See {ERC20-_burn}."
      },
      "burnFrom(address,uint256)": {
        "details": "Destroys `amount` tokens from `account`, deducting from the caller's allowance. See {ERC20-_burn} and {ERC20-allowance}. Requirements: - the caller must have allowance for ``accounts``'s tokens of at least `amount`."
      },
      "decimals()": {
        "details": "Returns the number of decimals used to get its user representation. For example, if `decimals` equals `2`, a balance of `505` tokens should be displayed to a user as `5,05` (`505 / 10 ** 2`). Tokens usually opt for a value of 18, imitating the relationship between Ether and Wei. This is the value {ERC20} uses, unless {_setupDecimals} is called. NOTE: This information is only used for _display_ purposes: it in no way affects any of the arithmetic of the contract, including {IERC20-balanceOf} and {IERC20-transfer}."
      },
      "decreaseAllowance(address,uint256)": {
        "details": "Atomically decreases the allowance granted to `spender` by the caller. This is an alternative to {approve} that can be used as a mitigation for problems described in {IERC20-approve}. Emits an {Approval} event indicating the updated allowance. Requirements: - `spender` cannot be the zero address. - `spender` must have allowance for the caller of at least `subtractedValue`."
      },
      "getRoleAdmin(bytes32)": {
        "details": "Returns the admin role that controls `role`. See {grantRole} and {revokeRole}. To change a role's admin, use {_setRoleAdmin}."
      },
      "getRoleMember(bytes32,uint256)": {
        "details": "Returns one of the accounts that have `role`. `index` must be a value between 0 and {getRoleMemberCount}, non-inclusive. Role bearers are not sorted in any particular way, and their ordering may change at any point. WARNING: When using {getRoleMember} and {getRoleMemberCount}, make sure you perform all queries on the same block. See the following https://forum.openzeppelin.com/t/iterating-over-elements-on-enumerableset-in-openzeppelin-contracts/2296[forum post] for more information."
      },
      "getRoleMemberCount(bytes32)": {
        "details": "Returns the number of accounts that have `role`. Can be used together with {getRoleMember} to enumerate all bearers of a role."
      },
      "grantRole(bytes32,address)": {
        "details": "Grants `role` to `account`. If `account` had not been already granted `role`, emits a {RoleGranted} event. Requirements: - the caller must have ``role``'s admin role."
      },
      "hasRole(bytes32,address)": {
        "details": "Returns `true` if `account` has been granted `role`."
      },
      "increaseAllowance(address,uint256)": {
        "details": "Atomically increases the allowance granted to `spender` by the caller. This is an alternative to {approve} that can be used as a mitigation for problems described in {IERC20-approve}. Emits an {Approval} event indicating the updated allowance. Requirements: - `spender` cannot be the zero address."
      },
      "mint(address,uint256)": {
        "details": "Creates `amount` new tokens for `to`. See {ERC20-_mint}. Requirements: - the caller must have the `MINTER_ROLE`."
      },
      "name()": {
        "details": "Returns the name of the token."
      },
      "pause()": {
        "details": "Pauses all token transfers. See {ERC20Pausable} and {Pausable-_pause}. Requirements: - the caller must have the `PAUSER_ROLE`."
      },
      "paused()": {
        "details": "Returns true if the contract is paused, and false otherwise."
      },
      "renounceRole(bytes32,address)": {
        "details": "Revokes `role` from the calling account. Roles are often managed via {grantRole} and {revokeRole}: this function's purpose is to provide a mechanism for accounts to lose their privileges if they are compromised (such as when a trusted device is misplaced). If the calling account had been granted `role`, emits a {RoleRevoked} event. Requirements: - the caller must be `account`."
      },
      "revokeRole(bytes32,address)": {
        "details": "Revokes `role` from `account`. If `account` had been granted `role`, emits a {RoleRevoked} event. Requirements: - the caller must have ``role``'s admin role."
      },
      "symbol()": {
        "details": "Returns the symbol of the token, usually a shorter version of the name."
      },
      "totalSupply()": {
        "details": "See {IERC20-totalSupply}."
      },
      "transfer(address,uint256)": {
        "details": "See {IERC20-transfer}. Requirements: - `recipient` cannot be the zero address. - the caller must have a balance of at least `amount`."
      },
      "transferFrom(address,address,uint256)": {
        "details": "See {IERC20-transferFrom}. Emits an {Approval} event indicating the updated allowance. This is not required by the EIP. See the note at the beginning of {ERC20}. Requirements: - `sender` and `recipient` cannot be the zero address. - `sender` must have a balance of at least `amount`. - the caller must have allowance for ``sender``'s tokens of at least `amount`."
      },
      "unpause()": {
        "details": "Unpauses all token transfers. See {ERC20Pausable} and {Pausable-_unpause}. Requirements: - the caller must have the `PAUSER_ROLE`."
      }
    },
    "version": 1
  },
  "userdoc": {
    "kind": "user",
    "methods": {},
    "version": 1
  }
}